{
  "contractName": "ParkingPlaces",
  "abi": [
    {
      "inputs": [],
      "payable": false,
      "stateMutability": "nonpayable",
      "type": "constructor"
    },
    {
      "anonymous": false,
      "inputs": [
        {
          "indexed": true,
          "internalType": "address",
          "name": "_user",
          "type": "address"
        },
        {
          "indexed": false,
          "internalType": "uint256",
          "name": "_id",
          "type": "uint256"
        },
        {
          "indexed": false,
          "internalType": "uint256",
          "name": "_placeId",
          "type": "uint256"
        },
        {
          "indexed": false,
          "internalType": "bool",
          "name": "_success",
          "type": "bool"
        }
      ],
      "name": "Approved",
      "type": "event"
    },
    {
      "anonymous": false,
      "inputs": [
        {
          "indexed": true,
          "internalType": "address",
          "name": "_from",
          "type": "address"
        },
        {
          "indexed": false,
          "internalType": "uint256",
          "name": "_id",
          "type": "uint256"
        },
        {
          "indexed": false,
          "internalType": "bool",
          "name": "_success",
          "type": "bool"
        }
      ],
      "name": "Book",
      "type": "event"
    },
    {
      "anonymous": false,
      "inputs": [
        {
          "indexed": true,
          "internalType": "address",
          "name": "_user",
          "type": "address"
        },
        {
          "indexed": false,
          "internalType": "uint256",
          "name": "_id",
          "type": "uint256"
        },
        {
          "indexed": false,
          "internalType": "bool",
          "name": "_success",
          "type": "bool"
        }
      ],
      "name": "Leave",
      "type": "event"
    },
    {
      "anonymous": false,
      "inputs": [
        {
          "indexed": true,
          "internalType": "address",
          "name": "_from",
          "type": "address"
        },
        {
          "indexed": false,
          "internalType": "bool",
          "name": "_success",
          "type": "bool"
        }
      ],
      "name": "Register",
      "type": "event"
    },
    {
      "anonymous": false,
      "inputs": [
        {
          "indexed": true,
          "internalType": "address",
          "name": "_from",
          "type": "address"
        },
        {
          "indexed": false,
          "internalType": "uint256",
          "name": "_id",
          "type": "uint256"
        },
        {
          "indexed": false,
          "internalType": "bool",
          "name": "_success",
          "type": "bool"
        }
      ],
      "name": "RegisterPlace",
      "type": "event"
    },
    {
      "anonymous": false,
      "inputs": [
        {
          "indexed": true,
          "internalType": "address",
          "name": "_user",
          "type": "address"
        },
        {
          "indexed": false,
          "internalType": "bool",
          "name": "_success",
          "type": "bool"
        }
      ],
      "name": "Withdraw",
      "type": "event"
    },
    {
      "constant": true,
      "inputs": [
        {
          "internalType": "uint256",
          "name": "",
          "type": "uint256"
        }
      ],
      "name": "bookings",
      "outputs": [
        {
          "internalType": "uint256",
          "name": "id",
          "type": "uint256"
        },
        {
          "internalType": "address",
          "name": "userAddress",
          "type": "address"
        },
        {
          "internalType": "string",
          "name": "name",
          "type": "string"
        },
        {
          "internalType": "bool",
          "name": "isApproved",
          "type": "bool"
        },
        {
          "internalType": "bool",
          "name": "isRejected",
          "type": "bool"
        },
        {
          "internalType": "bool",
          "name": "isPaid",
          "type": "bool"
        },
        {
          "internalType": "uint256",
          "name": "placeId",
          "type": "uint256"
        },
        {
          "internalType": "uint256",
          "name": "rating",
          "type": "uint256"
        },
        {
          "internalType": "string",
          "name": "placeName",
          "type": "string"
        }
      ],
      "payable": false,
      "stateMutability": "view",
      "type": "function"
    },
    {
      "constant": true,
      "inputs": [],
      "name": "owner",
      "outputs": [
        {
          "internalType": "address",
          "name": "",
          "type": "address"
        }
      ],
      "payable": false,
      "stateMutability": "view",
      "type": "function"
    },
    {
      "constant": true,
      "inputs": [
        {
          "internalType": "uint256",
          "name": "",
          "type": "uint256"
        }
      ],
      "name": "places",
      "outputs": [
        {
          "internalType": "uint256",
          "name": "id",
          "type": "uint256"
        },
        {
          "internalType": "string",
          "name": "name",
          "type": "string"
        },
        {
          "internalType": "uint256",
          "name": "totalSlots",
          "type": "uint256"
        },
        {
          "internalType": "uint256",
          "name": "remainingSlots",
          "type": "uint256"
        }
      ],
      "payable": false,
      "stateMutability": "view",
      "type": "function"
    },
    {
      "constant": true,
      "inputs": [],
      "name": "totalBooking",
      "outputs": [
        {
          "internalType": "uint256",
          "name": "",
          "type": "uint256"
        }
      ],
      "payable": false,
      "stateMutability": "view",
      "type": "function"
    },
    {
      "constant": true,
      "inputs": [],
      "name": "totalPlaces",
      "outputs": [
        {
          "internalType": "uint256",
          "name": "",
          "type": "uint256"
        }
      ],
      "payable": false,
      "stateMutability": "view",
      "type": "function"
    },
    {
      "constant": true,
      "inputs": [
        {
          "internalType": "uint256",
          "name": "",
          "type": "uint256"
        }
      ],
      "name": "userAccounts",
      "outputs": [
        {
          "internalType": "address",
          "name": "",
          "type": "address"
        }
      ],
      "payable": false,
      "stateMutability": "view",
      "type": "function"
    },
    {
      "constant": true,
      "inputs": [
        {
          "internalType": "address",
          "name": "",
          "type": "address"
        }
      ],
      "name": "users",
      "outputs": [
        {
          "internalType": "string",
          "name": "name",
          "type": "string"
        },
        {
          "internalType": "string",
          "name": "password",
          "type": "string"
        },
        {
          "internalType": "bool",
          "name": "isReserved",
          "type": "bool"
        }
      ],
      "payable": false,
      "stateMutability": "view",
      "type": "function"
    },
    {
      "constant": true,
      "inputs": [
        {
          "internalType": "address",
          "name": "user",
          "type": "address"
        }
      ],
      "name": "existsUser",
      "outputs": [
        {
          "internalType": "bool",
          "name": "exists",
          "type": "bool"
        }
      ],
      "payable": false,
      "stateMutability": "view",
      "type": "function"
    },
    {
      "constant": false,
      "inputs": [
        {
          "internalType": "string",
          "name": "_name",
          "type": "string"
        },
        {
          "internalType": "uint256",
          "name": "_maxSlots",
          "type": "uint256"
        }
      ],
      "name": "setPlace",
      "outputs": [],
      "payable": false,
      "stateMutability": "nonpayable",
      "type": "function"
    },
    {
      "constant": false,
      "inputs": [
        {
          "internalType": "string",
          "name": "_name",
          "type": "string"
        },
        {
          "internalType": "string",
          "name": "_password",
          "type": "string"
        }
      ],
      "name": "setUser",
      "outputs": [],
      "payable": false,
      "stateMutability": "nonpayable",
      "type": "function"
    },
    {
      "constant": true,
      "inputs": [],
      "name": "registeredUsers",
      "outputs": [
        {
          "internalType": "address[]",
          "name": "",
          "type": "address[]"
        }
      ],
      "payable": false,
      "stateMutability": "view",
      "type": "function"
    },
    {
      "constant": true,
      "inputs": [
        {
          "internalType": "address",
          "name": "usersAddress",
          "type": "address"
        }
      ],
      "name": "userInfo",
      "outputs": [
        {
          "internalType": "string",
          "name": "name",
          "type": "string"
        },
        {
          "internalType": "bool",
          "name": "isReserved",
          "type": "bool"
        },
        {
          "internalType": "uint256[]",
          "name": "userBookings",
          "type": "uint256[]"
        }
      ],
      "payable": false,
      "stateMutability": "view",
      "type": "function"
    },
    {
      "constant": true,
      "inputs": [
        {
          "internalType": "uint256",
          "name": "id",
          "type": "uint256"
        }
      ],
      "name": "placeInfo",
      "outputs": [
        {
          "internalType": "uint256",
          "name": "_id",
          "type": "uint256"
        },
        {
          "internalType": "string",
          "name": "_name",
          "type": "string"
        },
        {
          "internalType": "uint256",
          "name": "_total",
          "type": "uint256"
        },
        {
          "internalType": "uint256",
          "name": "_remaining",
          "type": "uint256"
        },
        {
          "internalType": "uint256[]",
          "name": "_userBookings",
          "type": "uint256[]"
        }
      ],
      "payable": false,
      "stateMutability": "view",
      "type": "function"
    },
    {
      "constant": true,
      "inputs": [
        {
          "internalType": "uint256",
          "name": "id",
          "type": "uint256"
        }
      ],
      "name": "bookInfo",
      "outputs": [
        {
          "internalType": "string",
          "name": "_name",
          "type": "string"
        },
        {
          "internalType": "uint256",
          "name": "_remaining",
          "type": "uint256"
        },
        {
          "internalType": "uint256",
          "name": "_rating",
          "type": "uint256"
        },
        {
          "internalType": "string",
          "name": "_placeName",
          "type": "string"
        },
        {
          "internalType": "bool",
          "name": "_isApproved",
          "type": "bool"
        },
        {
          "internalType": "bool",
          "name": "_isRejected",
          "type": "bool"
        }
      ],
      "payable": false,
      "stateMutability": "view",
      "type": "function"
    },
    {
      "constant": false,
      "inputs": [
        {
          "internalType": "uint256",
          "name": "placeId",
          "type": "uint256"
        }
      ],
      "name": "bookSlot",
      "outputs": [
        {
          "internalType": "bool",
          "name": "",
          "type": "bool"
        }
      ],
      "payable": false,
      "stateMutability": "nonpayable",
      "type": "function"
    },
    {
      "constant": false,
      "inputs": [
        {
          "internalType": "uint256",
          "name": "bookingId",
          "type": "uint256"
        }
      ],
      "name": "approveSlot",
      "outputs": [
        {
          "internalType": "bool",
          "name": "success",
          "type": "bool"
        }
      ],
      "payable": false,
      "stateMutability": "nonpayable",
      "type": "function"
    },
    {
      "constant": false,
      "inputs": [
        {
          "internalType": "uint256",
          "name": "bookingId",
          "type": "uint256"
        }
      ],
      "name": "rejectApproval",
      "outputs": [
        {
          "internalType": "bool",
          "name": "success",
          "type": "bool"
        }
      ],
      "payable": false,
      "stateMutability": "nonpayable",
      "type": "function"
    },
    {
      "constant": false,
      "inputs": [
        {
          "internalType": "uint256",
          "name": "_bookingId",
          "type": "uint256"
        },
        {
          "internalType": "uint256",
          "name": "_rating",
          "type": "uint256"
        }
      ],
      "name": "leaveParking",
      "outputs": [
        {
          "internalType": "bool",
          "name": "success",
          "type": "bool"
        }
      ],
      "payable": true,
      "stateMutability": "payable",
      "type": "function"
    },
    {
      "constant": false,
      "inputs": [],
      "name": "withdrawAll",
      "outputs": [
        {
          "internalType": "bool",
          "name": "success",
          "type": "bool"
        }
      ],
      "payable": false,
      "stateMutability": "nonpayable",
      "type": "function"
    }
  ],
  "bytecode": "0x6080604052600060055560006006553480156200001b57600080fd5b5033600460006101000a81548173ffffffffffffffffffffffffffffffffffffffff021916908373ffffffffffffffffffffffffffffffffffffffff160217905550620000a56040518060400160405280600881526020017f4564617070616c7900000000000000000000000000000000000000000000000081525060056200021360201b60201c565b620000ed6040518060400160405280600581526020017f416c75766100000000000000000000000000000000000000000000000000000081525060056200021360201b60201c565b620001356040518060400160405280600681526020017f436f6368696e000000000000000000000000000000000000000000000000000081525060056200021360201b60201c565b6200017d6040518060400160405280600a81526020017f466f72742d4b6f6368690000000000000000000000000000000000000000000081525060056200021360201b60201c565b620001c56040518060400160405280600681526020017f4b616c6f6f72000000000000000000000000000000000000000000000000000081525060056200021360201b60201c565b6200020d6040518060400160405280600c81526020017f50616c617269766174746f6d000000000000000000000000000000000000000081525060056200021360201b60201c565b6200044a565b600460009054906101000a900473ffffffffffffffffffffffffffffffffffffffff1673ffffffffffffffffffffffffffffffffffffffff163373ffffffffffffffffffffffffffffffffffffffff1614620002d7576040517f08c379a000000000000000000000000000000000000000000000000000000000815260040180806020018281038252601c8152602001807f4f6e6c79206f776e65722043616e20446f2074686520416374696f6e0000000081525060200191505060405180910390fd5b600160066000828254019250508190555060006002600060065481526020019081526020016000209050600654816000018190555082816001019080519060200190620003269291906200039b565b508181600201819055508181600301819055503373ffffffffffffffffffffffffffffffffffffffff167f4e6be0d86d0ccc32648ebc354915f07621a880fa0e6173294b08aad34392f6d0600654600160405180838152602001821515151581526020019250505060405180910390a2505050565b828054600181600116156101000203166002900490600052602060002090601f016020900481019282601f10620003de57805160ff19168380011785556200040f565b828001600101855582156200040f579182015b828111156200040e578251825591602001919060010190620003f1565b5b5090506200041e919062000422565b5090565b6200044791905b808211156200044357600081600090555060010162000429565b5090565b90565b612f42806200045a6000396000f3fe6080604052600436106101145760003560e01c80637f14bb63116100a0578063dab9981f11610064578063dab9981f14610b03578063e557bb4e14610c14578063e80f9afa14610cdd578063f409e87d14610d08578063f72e02ac14610d7157610114565b80637f14bb6314610817578063853828b61461086a5780638da5cb5b146108995780638f87d44f146108f0578063a87430ba146109c257610114565b80635728b973116100e75780635728b9731461046257806360eb6e64146105c1578063616d5058146105ec578063660d588714610667578063731156d1146106d357610114565b806319159e6e146101195780631959a0021461016c5780631dab301e146102895780634ed78ed814610412575b600080fd5b34801561012557600080fd5b506101526004803603602081101561013c57600080fd5b8101908080359060200190929190505050610dc4565b604051808215151515815260200191505060405180910390f35b34801561017857600080fd5b506101bb6004803603602081101561018f57600080fd5b81019080803573ffffffffffffffffffffffffffffffffffffffff16906020019092919050505061128f565b60405180806020018415151515815260200180602001838103835286818151815260200191508051906020019080838360005b838110156102095780820151818401526020810190506101ee565b50505050905090810190601f1680156102365780820380516001836020036101000a031916815260200191505b50838103825284818151815260200191508051906020019060200280838360005b83811015610272578082015181840152602081019050610257565b505050509050019550505050505060405180910390f35b34801561029557600080fd5b506102c2600480360360208110156102ac57600080fd5b8101908080359060200190929190505050611461565b604051808a81526020018973ffffffffffffffffffffffffffffffffffffffff1673ffffffffffffffffffffffffffffffffffffffff168152602001806020018815151515815260200187151515158152602001861515151581526020018581526020018481526020018060200183810383528a818151815260200191508051906020019080838360005b8381101561036857808201518184015260208101905061034d565b50505050905090810190601f1680156103955780820380516001836020036101000a031916815260200191505b50838103825284818151815260200191508051906020019080838360005b838110156103ce5780820151818401526020810190506103b3565b50505050905090810190601f1680156103fb5780820380516001836020036101000a031916815260200191505b509b50505050505050505050505060405180910390f35b6104486004803603604081101561042857600080fd5b810190808035906020019092919080359060200190929190505050611626565b604051808215151515815260200191505060405180910390f35b34801561046e57600080fd5b506105bf6004803603604081101561048557600080fd5b81019080803590602001906401000000008111156104a257600080fd5b8201836020820111156104b457600080fd5b803590602001918460018302840111640100000000831117156104d657600080fd5b91908080601f016020809104026020016040519081016040528093929190818152602001838380828437600081840152601f19601f8201169050808301925050505050505091929192908035906020019064010000000081111561053957600080fd5b82018360208201111561054b57600080fd5b8035906020019184600183028401116401000000008311171561056d57600080fd5b91908080601f016020809104026020016040519081016040528093929190818152602001838380828437600081840152601f19601f820116905080830192505050505050509192919290505050611a2a565b005b3480156105cd57600080fd5b506105d6611ca0565b6040518082815260200191505060405180910390f35b3480156105f857600080fd5b506106256004803603602081101561060f57600080fd5b8101908080359060200190929190505050611ca6565b604051808273ffffffffffffffffffffffffffffffffffffffff1673ffffffffffffffffffffffffffffffffffffffff16815260200191505060405180910390f35b34801561067357600080fd5b5061067c611ce2565b6040518080602001828103825283818151815260200191508051906020019060200280838360005b838110156106bf5780820151818401526020810190506106a4565b505050509050019250505060405180910390f35b3480156106df57600080fd5b5061070c600480360360208110156106f657600080fd5b8101908080359060200190929190505050611d70565b6040518080602001878152602001868152602001806020018515151515815260200184151515158152602001838103835289818151815260200191508051906020019080838360005b83811015610770578082015181840152602081019050610755565b50505050905090810190601f16801561079d5780820380516001836020036101000a031916815260200191505b50838103825286818151815260200191508051906020019080838360005b838110156107d65780820151818401526020810190506107bb565b50505050905090810190601f1680156108035780820380516001836020036101000a031916815260200191505b509850505050505050505060405180910390f35b34801561082357600080fd5b506108506004803603602081101561083a57600080fd5b8101908080359060200190929190505050611f85565b604051808215151515815260200191505060405180910390f35b34801561087657600080fd5b5061087f6122c7565b604051808215151515815260200191505060405180910390f35b3480156108a557600080fd5b506108ae612444565b604051808273ffffffffffffffffffffffffffffffffffffffff1673ffffffffffffffffffffffffffffffffffffffff16815260200191505060405180910390f35b3480156108fc57600080fd5b506109c06004803603604081101561091357600080fd5b810190808035906020019064010000000081111561093057600080fd5b82018360208201111561094257600080fd5b8035906020019184600183028401116401000000008311171561096457600080fd5b91908080601f016020809104026020016040519081016040528093929190818152602001838380828437600081840152601f19601f8201169050808301925050505050505091929192908035906020019092919050505061246a565b005b3480156109ce57600080fd5b50610a11600480360360208110156109e557600080fd5b81019080803573ffffffffffffffffffffffffffffffffffffffff1690602001909291905050506125ef565b60405180806020018060200184151515158152602001838103835286818151815260200191508051906020019080838360005b83811015610a5f578082015181840152602081019050610a44565b50505050905090810190601f168015610a8c5780820380516001836020036101000a031916815260200191505b50838103825285818151815260200191508051906020019080838360005b83811015610ac5578082015181840152602081019050610aaa565b50505050905090810190601f168015610af25780820380516001836020036101000a031916815260200191505b509550505050505060405180910390f35b348015610b0f57600080fd5b50610b3c60048036036020811015610b2657600080fd5b8101908080359060200190929190505050612756565b604051808681526020018060200185815260200184815260200180602001838103835287818151815260200191508051906020019080838360005b83811015610b92578082015181840152602081019050610b77565b50505050905090810190601f168015610bbf5780820380516001836020036101000a031916815260200191505b50838103825284818151815260200191508051906020019060200280838360005b83811015610bfb578082015181840152602081019050610be0565b5050505090500197505050505050505060405180910390f35b348015610c2057600080fd5b50610c4d60048036036020811015610c3757600080fd5b81019080803590602001909291905050506128d1565b6040518085815260200180602001848152602001838152602001828103825285818151815260200191508051906020019080838360005b83811015610c9f578082015181840152602081019050610c84565b50505050905090810190601f168015610ccc5780820380516001836020036101000a031916815260200191505b509550505050505060405180910390f35b348015610ce957600080fd5b50610cf2612999565b6040518082815260200191505060405180910390f35b348015610d1457600080fd5b50610d5760048036036020811015610d2b57600080fd5b81019080803573ffffffffffffffffffffffffffffffffffffffff16906020019092919050505061299f565b604051808215151515815260200191505060405180910390f35b348015610d7d57600080fd5b50610daa60048036036020811015610d9457600080fd5b8101908080359060200190929190505050612a41565b604051808215151515815260200191505060405180910390f35b600081600160026000838152602001908152602001600020600301541015610e54576040517f08c379a00000000000000000000000000000000000000000000000000000000081526004018080602001828103825260128152602001807f4e6f20536c6f747320417661696c61626c65000000000000000000000000000081525060200191505060405180910390fd5b610e5d3361299f565b1561121b57600015156000803373ffffffffffffffffffffffffffffffffffffffff1673ffffffffffffffffffffffffffffffffffffffff16815260200190815260200160002060020160009054906101000a900460ff16151514610f2a576040517f08c379a00000000000000000000000000000000000000000000000000000000081526004018080602001828103825260148152602001807f416c7265616479206f6e206120426f6f6b696e6700000000000000000000000081525060200191505060405180910390fd5b6001600560008282540192505081905550600060016000600554815260200190815260200160002090506005548160000181905550338160010160006101000a81548173ffffffffffffffffffffffffffffffffffffffff021916908373ffffffffffffffffffffffffffffffffffffffff1602179055506000803373ffffffffffffffffffffffffffffffffffffffff1673ffffffffffffffffffffffffffffffffffffffff168152602001908152602001600020600001816002019080546001816001161561010002031660029004611006929190612d94565b5060008160030160006101000a81548160ff02191690831515021790555060008160030160016101000a81548160ff02191690831515021790555060008160030160026101000a81548160ff02191690831515021790555083816004018190555060008160050181905550600260008581526020019081526020016000206001018160060190805460018160011615610100020316600290046110aa929190612d94565b5060026000858152602001908152602001600020600401600554908060018154018082558091505090600182039060005260206000200160009091929091909150555060016000803373ffffffffffffffffffffffffffffffffffffffff1673ffffffffffffffffffffffffffffffffffffffff16815260200190815260200160002060020160006101000a81548160ff0219169083151502179055506000803373ffffffffffffffffffffffffffffffffffffffff1673ffffffffffffffffffffffffffffffffffffffff16815260200190815260200160002060030160055490806001815401808255809150509060018203906000526020600020016000909192909190915055503373ffffffffffffffffffffffffffffffffffffffff167fa90588d5f835c67130ab3cf1206f51d26ad8520785678e1f3ddb32e722bc9721600554600160405180838152602001821515151581526020019250505060405180910390a26001925050611289565b6040517f08c379a000000000000000000000000000000000000000000000000000000000815260040180806020018281038252600f8152602001807f55736572204e6f7420457869737473000000000000000000000000000000000081525060200191505060405180910390fd5b50919050565b6060600060606000808573ffffffffffffffffffffffffffffffffffffffff1673ffffffffffffffffffffffffffffffffffffffff1681526020019081526020016000206000016000808673ffffffffffffffffffffffffffffffffffffffff1673ffffffffffffffffffffffffffffffffffffffff16815260200190815260200160002060020160009054906101000a900460ff166000808773ffffffffffffffffffffffffffffffffffffffff1673ffffffffffffffffffffffffffffffffffffffff168152602001908152602001600020600301828054600181600116156101000203166002900480601f0160208091040260200160405190810160405280929190818152602001828054600181600116156101000203166002900480156113fb5780601f106113d0576101008083540402835291602001916113fb565b820191906000526020600020905b8154815290600101906020018083116113de57829003601f168201915b505050505092508080548060200260200160405190810160405280929190818152602001828054801561144d57602002820191906000526020600020905b815481526020019060010190808311611439575b505050505090509250925092509193909250565b60016020528060005260406000206000915090508060000154908060010160009054906101000a900473ffffffffffffffffffffffffffffffffffffffff1690806002018054600181600116156101000203166002900480601f0160208091040260200160405190810160405280929190818152602001828054600181600116156101000203166002900480156115395780601f1061150e57610100808354040283529160200191611539565b820191906000526020600020905b81548152906001019060200180831161151c57829003601f168201915b5050505050908060030160009054906101000a900460ff16908060030160019054906101000a900460ff16908060030160029054906101000a900460ff1690806004015490806005015490806006018054600181600116156101000203166002900480601f01602080910402602001604051908101604052809291908181526020018280546001816001161561010002031660029004801561161c5780601f106115f15761010080835404028352916020019161161c565b820191906000526020600020905b8154815290600101906020018083116115ff57829003601f168201915b5050505050905089565b6000600a34101561169f576040517f08c379a000000000000000000000000000000000000000000000000000000000815260040180806020018281038252601e8152602001807f313020776569205265717569726564206173205061726b696e6720466565000081525060200191505060405180910390fd5b82600554811115611718576040517f08c379a000000000000000000000000000000000000000000000000000000000815260040180806020018281038252601a8152602001807f436f756c64206e6f742066696e642074686520626f6f6b696e6700000000000081525060200191505060405180910390fd5b833373ffffffffffffffffffffffffffffffffffffffff166001600083815260200190815260200160002060010160009054906101000a900473ffffffffffffffffffffffffffffffffffffffff1673ffffffffffffffffffffffffffffffffffffffff16146117d3576040517f08c379a000000000000000000000000000000000000000000000000000000000815260040180806020018281038252602c815260200180612ec1602c913960400191505060405180910390fd5b6001600086815260200190815260200160002060030160009054906101000a900460ff16801561182a5750600015156001600087815260200190815260200160002060030160029054906101000a900460ff161515145b156119b457600060016000878152602001908152602001600020600401549050600180600088815260200190815260200160002060030160026101000a81548160ff02191690831515021790555084600160008881526020019081526020016000206005018190555060006001600088815260200190815260200160002060010160009054906101000a900473ffffffffffffffffffffffffffffffffffffffff16905060008060008373ffffffffffffffffffffffffffffffffffffffff1673ffffffffffffffffffffffffffffffffffffffff16815260200190815260200160002060020160006101000a81548160ff02191690831515021790555060026000838152602001908152602001600020600301600081548092919060010191905055503373ffffffffffffffffffffffffffffffffffffffff167f1bbc287760040dc4e9332a0da243faa6db4a19e930bd7fee426fe0c32730b5e988600160405180838152602001821515151581526020019250505060405180910390a2600194505050611a22565b6040517f08c379a00000000000000000000000000000000000000000000000000000000081526004018080602001828103825260188152602001807f4e6f7420537570706f736520746f206c65617665206e6f77000000000000000081525060200191505060405180910390fd5b505092915050565b600460009054906101000a900473ffffffffffffffffffffffffffffffffffffffff1673ffffffffffffffffffffffffffffffffffffffff163373ffffffffffffffffffffffffffffffffffffffff161415611ad1576040517f08c379a0000000000000000000000000000000000000000000000000000000008152600401808060200182810382526021815260200180612eed6021913960400191505060405180910390fd5b611ada3361299f565b611c2e5760008060003373ffffffffffffffffffffffffffffffffffffffff1673ffffffffffffffffffffffffffffffffffffffff168152602001908152602001600020905082816000019080519060200190611b38929190612e1b565b5081816001019080519060200190611b51929190612e1b565b5060008160020160006101000a81548160ff02191690831515021790555060033390806001815401808255809150509060018203906000526020600020016000909192909190916101000a81548173ffffffffffffffffffffffffffffffffffffffff021916908373ffffffffffffffffffffffffffffffffffffffff160217905550503373ffffffffffffffffffffffffffffffffffffffff167fe5893cbe0f29b1ed4010af79004fcf5b6bdf713a7ccdc0b9e475e64ce2283df66001604051808215151515815260200191505060405180910390a250611c9c565b6040517f08c379a00000000000000000000000000000000000000000000000000000000081526004018080602001828103825260138152602001807f5573657220416c7265616479204578697374730000000000000000000000000081525060200191505060405180910390fd5b5050565b60055481565b60038181548110611cb357fe5b906000526020600020016000915054906101000a900473ffffffffffffffffffffffffffffffffffffffff1681565b60606003805480602002602001604051908101604052809291908181526020018280548015611d6657602002820191906000526020600020905b8160009054906101000a900473ffffffffffffffffffffffffffffffffffffffff1673ffffffffffffffffffffffffffffffffffffffff1681526020019060010190808311611d1c575b5050505050905090565b60606000806060600080600060016000898152602001908152602001600020600401549050600160008981526020019081526020016000206002016002600083815260200190815260200160002060030154600160008b81526020019081526020016000206005015460026000858152602001908152602001600020600101600160008d815260200190815260200160002060030160009054906101000a900460ff16600160008e815260200190815260200160002060030160019054906101000a900460ff16858054600181600116156101000203166002900480601f016020809104026020016040519081016040528092919081815260200182805460018160011615610100020316600290048015611ecc5780601f10611ea157610100808354040283529160200191611ecc565b820191906000526020600020905b815481529060010190602001808311611eaf57829003601f168201915b50505050509550828054600181600116156101000203166002900480601f016020809104026020016040519081016040528092919081815260200182805460018160011615610100020316600290048015611f685780601f10611f3d57610100808354040283529160200191611f68565b820191906000526020600020905b815481529060010190602001808311611f4b57829003601f168201915b505050505092509650965096509650965096505091939550919395565b600081600554811115612000576040517f08c379a000000000000000000000000000000000000000000000000000000000815260040180806020018281038252601a8152602001807f436f756c64206e6f742066696e642074686520626f6f6b696e6700000000000081525060200191505060405180910390fd5b600460009054906101000a900473ffffffffffffffffffffffffffffffffffffffff1673ffffffffffffffffffffffffffffffffffffffff163373ffffffffffffffffffffffffffffffffffffffff16146120c3576040517f08c379a000000000000000000000000000000000000000000000000000000000815260040180806020018281038252601c8152602001807f4f6e6c79206f776e65722043616e20446f2074686520416374696f6e0000000081525060200191505060405180910390fd5b6001600084815260200190815260200160002060030160009054906101000a900460ff1661225357600060016000858152602001908152602001600020600401549050600160026000838152602001908152602001600020600301541015612193576040517f08c379a00000000000000000000000000000000000000000000000000000000081526004018080602001828103825260128152602001807f4e6f20536c6f747320417661696c61626c65000000000000000000000000000081525060200191505060405180910390fd5b600180600086815260200190815260200160002060030160006101000a81548160ff0219169083151502179055506002600082815260200190815260200160002060030160008154809291906001900391905055503373ffffffffffffffffffffffffffffffffffffffff167db9d6c1fe3775214d07c5c02b7c6910f31acc2f4e4009ce668d711a2de01c858360016040518084815260200183815260200182151515158152602001935050505060405180910390a260019250506122c1565b6040517f08c379a00000000000000000000000000000000000000000000000000000000081526004018080602001828103825260188152602001807f426f6f6b696e6720416c726561647920417070726f766564000000000000000081525060200191505060405180910390fd5b50919050565b6000600460009054906101000a900473ffffffffffffffffffffffffffffffffffffffff1673ffffffffffffffffffffffffffffffffffffffff163373ffffffffffffffffffffffffffffffffffffffff161461238c576040517f08c379a000000000000000000000000000000000000000000000000000000000815260040180806020018281038252601c8152602001807f4f6e6c79206f776e65722043616e20446f2074686520416374696f6e0000000081525060200191505060405180910390fd5b3373ffffffffffffffffffffffffffffffffffffffff166108fc3073ffffffffffffffffffffffffffffffffffffffff16319081150290604051600060405180830381858888f193505050501580156123e9573d6000803e3d6000fd5b503373ffffffffffffffffffffffffffffffffffffffff167f243a9ff8750c9b7aa4b17b4c79e42c128d09ee4e4359d45b82fd0baf59e136886001604051808215151515815260200191505060405180910390a26001905090565b600460009054906101000a900473ffffffffffffffffffffffffffffffffffffffff1681565b600460009054906101000a900473ffffffffffffffffffffffffffffffffffffffff1673ffffffffffffffffffffffffffffffffffffffff163373ffffffffffffffffffffffffffffffffffffffff161461252d576040517f08c379a000000000000000000000000000000000000000000000000000000000815260040180806020018281038252601c8152602001807f4f6e6c79206f776e65722043616e20446f2074686520416374696f6e0000000081525060200191505060405180910390fd5b60016006600082825401925050819055506000600260006006548152602001908152602001600020905060065481600001819055508281600101908051906020019061257a929190612e1b565b508181600201819055508181600301819055503373ffffffffffffffffffffffffffffffffffffffff167f4e6be0d86d0ccc32648ebc354915f07621a880fa0e6173294b08aad34392f6d0600654600160405180838152602001821515151581526020019250505060405180910390a2505050565b6000602052806000526040600020600091509050806000018054600181600116156101000203166002900480601f01602080910402602001604051908101604052809291908181526020018280546001816001161561010002031660029004801561269b5780601f106126705761010080835404028352916020019161269b565b820191906000526020600020905b81548152906001019060200180831161267e57829003601f168201915b505050505090806001018054600181600116156101000203166002900480601f0160208091040260200160405190810160405280929190818152602001828054600181600116156101000203166002900480156127395780601f1061270e57610100808354040283529160200191612739565b820191906000526020600020905b81548152906001019060200180831161271c57829003601f168201915b5050505050908060020160009054906101000a900460ff16905083565b6000606060008060606002600087815260200190815260200160002060000154600260008881526020019081526020016000206001016002600089815260200190815260200160002060020154600260008a815260200190815260200160002060030154600260008b8152602001908152602001600020600401838054600181600116156101000203166002900480601f0160208091040260200160405190810160405280929190818152602001828054600181600116156101000203166002900480156128655780601f1061283a57610100808354040283529160200191612865565b820191906000526020600020905b81548152906001019060200180831161284857829003601f168201915b50505050509350808054806020026020016040519081016040528092919081815260200182805480156128b757602002820191906000526020600020905b8154815260200190600101908083116128a3575b505050505090509450945094509450945091939590929450565b6002602052806000526040600020600091509050806000015490806001018054600181600116156101000203166002900480601f0160208091040260200160405190810160405280929190818152602001828054600181600116156101000203166002900480156129835780601f1061295857610100808354040283529160200191612983565b820191906000526020600020905b81548152906001019060200180831161296657829003601f168201915b5050505050908060020154908060030154905084565b60065481565b600080600090505b600380549050811015612a36578273ffffffffffffffffffffffffffffffffffffffff16600382815481106129d857fe5b9060005260206000200160009054906101000a900473ffffffffffffffffffffffffffffffffffffffff1673ffffffffffffffffffffffffffffffffffffffff161415612a29576001915050612a3c565b80806001019150506129a7565b50600090505b919050565b600081600554811115612abc576040517f08c379a000000000000000000000000000000000000000000000000000000000815260040180806020018281038252601a8152602001807f436f756c64206e6f742066696e642074686520626f6f6b696e6700000000000081525060200191505060405180910390fd5b600460009054906101000a900473ffffffffffffffffffffffffffffffffffffffff1673ffffffffffffffffffffffffffffffffffffffff163373ffffffffffffffffffffffffffffffffffffffff1614612b7f576040517f08c379a000000000000000000000000000000000000000000000000000000000815260040180806020018281038252601c8152602001807f4f6e6c79206f776e65722043616e20446f2074686520416374696f6e0000000081525060200191505060405180910390fd5b6001600084815260200190815260200160002060030160009054906101000a900460ff16158015612bd157506001600084815260200190815260200160002060030160019054906101000a900460ff16155b15612d2057600060016000858152602001908152602001600020600401549050600180600086815260200190815260200160002060030160016101000a81548160ff02191690831515021790555060006001600086815260200190815260200160002060010160009054906101000a900473ffffffffffffffffffffffffffffffffffffffff16905060008060008373ffffffffffffffffffffffffffffffffffffffff1673ffffffffffffffffffffffffffffffffffffffff16815260200190815260200160002060020160006101000a81548160ff0219169083151502179055503373ffffffffffffffffffffffffffffffffffffffff167db9d6c1fe3775214d07c5c02b7c6910f31acc2f4e4009ce668d711a2de01c868460006040518084815260200183815260200182151515158152602001935050505060405180910390a2600193505050612d8e565b6040517f08c379a00000000000000000000000000000000000000000000000000000000081526004018080602001828103825260188152602001807f426f6f6b696e6720416c726561647920417070726f766564000000000000000081525060200191505060405180910390fd5b50919050565b828054600181600116156101000203166002900490600052602060002090601f016020900481019282601f10612dcd5780548555612e0a565b82800160010185558215612e0a57600052602060002091601f016020900482015b82811115612e09578254825591600101919060010190612dee565b5b509050612e179190612e9b565b5090565b828054600181600116156101000203166002900490600052602060002090601f016020900481019282601f10612e5c57805160ff1916838001178555612e8a565b82800160010185558215612e8a579182015b82811115612e89578251825591602001919060010190612e6e565b5b509050612e979190612e9b565b5090565b612ebd91905b80821115612eb9576000816000905550600101612ea1565b5090565b9056fe4f6e6c792074686520426f6f6b656420757365722063616e20696e6974696174652074686520616374696f6e41646d696e20436f756c64206e6f74206f6e626f61726420617320612075736572a265627a7a723158208db66524dfc1f4ce6a2fab3f42fc62d4604f664ff70b9e4e9b835275145450bd64736f6c63430005100032",
  "source": "pragma solidity >=0.4.0 <0.7.0;\r\n\r\ncontract ParkingPlaces {\r\n    //  Structure of User Information\r\n    struct User {\r\n        string name;\r\n        string password;\r\n        bool isReserved;\r\n        uint256[] bookings;\r\n    }\r\n\r\n    // Structure of Booking Information\r\n    struct Bookings {\r\n        uint256 id;\r\n        address userAddress;\r\n        string name;\r\n        bool isApproved;\r\n        bool isRejected;\r\n        bool isPaid;\r\n        uint256 placeId;\r\n        uint256 rating;\r\n        string placeName;\r\n    }\r\n\r\n    // Structure of Place Information\r\n    struct Places {\r\n        uint256 id;\r\n        string name;\r\n        uint256 totalSlots;\r\n        uint256 remainingSlots;\r\n        uint256[] bookings;\r\n    }\r\n\r\n    mapping(address => User) public users; // Users are mapped with the Corresponding Ethereum Address\r\n    mapping(uint256 => Bookings) public bookings; // Bookings are mapped with the Booking Id\r\n    mapping(uint256 => Places) public places; // Places are mapped with the Place Id\r\n    address[] public userAccounts; // Registered users address are stored in an array\r\n    address public owner; // Owner address to be keeped here.\r\n    uint256 public totalBooking = 0; // Total Number of Bookings till date - initialized to zero\r\n    uint256 public totalPlaces = 0; // Total Number of Places till date - initialized to zero\r\n\r\n    event Register(address indexed _from, bool _success);\r\n    event Book(address indexed _from, uint256 _id, bool _success);\r\n    event Approved(\r\n        address indexed _user,\r\n        uint256 _id,\r\n        uint256 _placeId,\r\n        bool _success\r\n    );\r\n    event Leave(address indexed _user, uint256 _id, bool _success);\r\n    event Withdraw(address indexed _user, bool _success);\r\n    event RegisterPlace(address indexed _from, uint256 _id, bool _success);\r\n\r\n    constructor() public {\r\n        owner = msg.sender;\r\n\r\n        // totalSlots = slotsAvailable;\r\n        // remainingSlots = slotsAvailable;\r\n\r\n        setPlace(\"Edappaly\", 5);\r\n        setPlace(\"Aluva\", 5);\r\n        setPlace(\"Cochin\", 5);\r\n        setPlace(\"Fort-Kochi\", 5);\r\n        setPlace(\"Kaloor\", 5);\r\n        setPlace(\"Palarivattom\", 5);\r\n    }\r\n\r\n    // Only owner of the contract can initiate the transaction using this modifier\r\n    modifier onlyOwner() {\r\n        require(msg.sender == owner, \"Only owner Can Do the Action\");\r\n        _;\r\n    }\r\n\r\n    // Minimum Parking Fee is set as 10 wei by default.\r\n    modifier hasValue() {\r\n        require(msg.value >= 10 wei, \"10 wei Required as Parking Fee\");\r\n        _;\r\n    }\r\n\r\n    // Validating a booking if it exists or not\r\n    modifier validBooking(uint256 bookingNumber) {\r\n        require(bookingNumber <= totalBooking, \"Could not find the booking\");\r\n        _;\r\n    }\r\n\r\n    modifier validUser(uint256 bookingNumber) {\r\n        // Validating a user if the booking done by that user or not\r\n        require(\r\n            bookings[bookingNumber].userAddress == msg.sender,\r\n            \"Only the Booked user can initiate the action\"\r\n        );\r\n        _;\r\n    }\r\n\r\n    modifier hasSlots(uint256 id) {\r\n        // Verifying wether the slots available or not\r\n        require(places[id].remainingSlots >= 1, \"No Slots Available\");\r\n        _;\r\n    }\r\n\r\n    // Verifying if a user exists or not\r\n    function existsUser(address user) public view returns (bool exists) {\r\n        for (uint256 i = 0; i < userAccounts.length; i++) {\r\n            if (userAccounts[i] == user) return true;\r\n        }\r\n        return false;\r\n    }\r\n\r\n    // Registration of  a new user. To be initiated by the user\r\n    function setPlace(string memory _name, uint256 _maxSlots) public onlyOwner {\r\n        totalPlaces += 1;\r\n        Places storage instructor = places[totalPlaces];\r\n\r\n        instructor.id = totalPlaces;\r\n        instructor.name = _name;\r\n        instructor.totalSlots = _maxSlots;\r\n        instructor.remainingSlots = _maxSlots;\r\n\r\n        emit RegisterPlace(msg.sender, totalPlaces, true);\r\n    }\r\n\r\n    // Registration of  a new user. To be initiated by the user\r\n    function setUser(string memory _name, string memory _password) public {\r\n        require(msg.sender != owner, \"Admin Could not onboard as a user\");\r\n        if (!existsUser(msg.sender)) {\r\n            User storage instructor = users[msg.sender];\r\n\r\n            instructor.name = _name;\r\n            instructor.password = _password;\r\n            instructor.isReserved = false;\r\n\r\n            userAccounts.push(msg.sender);\r\n            emit Register(msg.sender, true);\r\n        } else revert(\"User Already Exists\");\r\n    }\r\n\r\n    // View functionality for the Registered users as of now.\r\n    function registeredUsers() public view returns (address[] memory) {\r\n        return userAccounts;\r\n    }\r\n\r\n    // View functionality for the Registered users as of now.\r\n    function userInfo(address usersAddress)\r\n        public\r\n        view\r\n        returns (\r\n            string memory name,\r\n            bool isReserved,\r\n            uint256[] memory userBookings\r\n        )\r\n    {\r\n        return (\r\n            users[usersAddress].name,\r\n            users[usersAddress].isReserved,\r\n            users[usersAddress].bookings\r\n        );\r\n    }\r\n\r\n    // View functionality for the Registered users as of now.\r\n    function placeInfo(uint256 id)\r\n        public\r\n        view\r\n        returns (\r\n            uint256 _id,\r\n            string memory _name,\r\n            uint256 _total,\r\n            uint256 _remaining,\r\n            uint256[] memory _userBookings\r\n        )\r\n    {\r\n        return (\r\n            places[id].id,\r\n            places[id].name,\r\n            places[id].totalSlots,\r\n            places[id].remainingSlots,\r\n            places[id].bookings\r\n        );\r\n    }\r\n\r\n    // View functionality for all the booking-related as of now.\r\n    function bookInfo(uint256 id)\r\n        public\r\n        view\r\n        returns (\r\n            string memory _name,\r\n            uint256 _remaining,\r\n            uint256 _rating,\r\n            string memory _placeName,\r\n            bool _isApproved,\r\n            bool _isRejected\r\n        )\r\n    {\r\n        uint256 placeId = bookings[id].placeId;\r\n        return (\r\n            bookings[id].name,\r\n            places[placeId].remainingSlots,\r\n            bookings[id].rating,\r\n            places[placeId].name,\r\n            bookings[id].isApproved,\r\n            bookings[id].isRejected\r\n        );\r\n    }\r\n\r\n    // Function to book a new slot. To be initiated by a registered user\r\n    function bookSlot(uint256 placeId) public hasSlots(placeId) returns (bool) {\r\n        if (existsUser(msg.sender)) {\r\n            require(\r\n                users[msg.sender].isReserved == false,\r\n                \"Already on a Booking\"\r\n            );\r\n            totalBooking += 1;\r\n            Bookings storage initiate = bookings[totalBooking];\r\n\r\n            initiate.id = totalBooking;\r\n            initiate.userAddress = msg.sender;\r\n            initiate.name = users[msg.sender].name;\r\n            initiate.isApproved = false;\r\n            initiate.isRejected = false;\r\n            initiate.isPaid = false;\r\n            initiate.placeId = placeId;\r\n            initiate.rating = 0;\r\n            initiate.placeName = places[placeId].name;\r\n\r\n            places[placeId].bookings.push(totalBooking);\r\n\r\n            users[msg.sender].isReserved = true;\r\n            users[msg.sender].bookings.push(totalBooking);\r\n\r\n            emit Book(msg.sender, totalBooking, true);\r\n\r\n            return true;\r\n        } else revert(\"User Not Exists\");\r\n    }\r\n\r\n    // Function to Approve any pending bookings. To be initiated by the owner\r\n    function approveSlot(uint256 bookingId)\r\n        public\r\n        validBooking(bookingId)\r\n        onlyOwner\r\n        returns (bool success)\r\n    {\r\n        if (!bookings[bookingId].isApproved) {\r\n            uint256 placeId = bookings[bookingId].placeId;\r\n            require(places[placeId].remainingSlots >= 1, \"No Slots Available\");\r\n\r\n            bookings[bookingId].isApproved = true;\r\n            places[placeId].remainingSlots--;\r\n            emit Approved(msg.sender, bookingId, placeId, true);\r\n            return true;\r\n        } else revert(\"Booking Already Approved\");\r\n    }\r\n\r\n    // Function to Reject any pending bookings. To be initiated by the owner\r\n    function rejectApproval(uint256 bookingId)\r\n        public\r\n        validBooking(bookingId)\r\n        onlyOwner\r\n        returns (bool success)\r\n    {\r\n        if (\r\n            !bookings[bookingId].isApproved && !bookings[bookingId].isRejected\r\n        ) {\r\n            uint256 placeId = bookings[bookingId].placeId;\r\n            bookings[bookingId].isRejected = true;\r\n            address user = bookings[bookingId].userAddress;\r\n            users[user].isReserved = false;\r\n            emit Approved(msg.sender, bookingId, placeId, false);\r\n            return true;\r\n        } else revert(\"Booking Already Approved\");\r\n    }\r\n\r\n    // Function to be executed at the time when a user leaves the parking premises.\r\n    // The user needs to be payed for the service provided by the owner.\r\n    function leaveParking(uint256 _bookingId, uint256 _rating)\r\n        public\r\n        payable\r\n        hasValue\r\n        validBooking(_bookingId)\r\n        validUser(_bookingId)\r\n        returns (bool success)\r\n    {\r\n        if (\r\n            bookings[_bookingId].isApproved &&\r\n            bookings[_bookingId].isPaid == false\r\n        ) {\r\n            uint256 placeId = bookings[_bookingId].placeId;\r\n            bookings[_bookingId].isPaid = true;\r\n            bookings[_bookingId].rating = _rating;\r\n            address user = bookings[_bookingId].userAddress;\r\n            users[user].isReserved = false;\r\n            places[placeId].remainingSlots++;\r\n            emit Leave(msg.sender, _bookingId, true);\r\n            return true;\r\n        } else revert(\"Not Suppose to leave now\");\r\n    }\r\n\r\n    //Withdraw the ether from contract address to owner address .\r\n    function withdrawAll() public onlyOwner returns (bool success) {\r\n        msg.sender.transfer(address(this).balance);\r\n        emit Withdraw(msg.sender, true);\r\n        return true;\r\n    }\r\n}\r\n",
  "sourcePath": "C:/Users/BrandXT/works/project-parking/src/contracts/ParkingPlaces.sol",
  "compiler": {
    "name": "solc",
    "version": "0.5.16+commit.9c3226ce.Emscripten.clang"
  },
  "schemaVersion": "3.2.3",
  "updatedAt": "2021-06-11T08:50:44.284Z",
  "networkType": "ethereum",
  "devdoc": {
    "methods": {}
  },
  "userdoc": {
    "methods": {}
  }
}